:0A0000000000803103288731F12F42
:100BAA0041019D1408007108FC007008FB00080050
:100BBA0050011E138F309B0080309A001E141C08AF
:100BCA00F00070084001A9008F3050019B0081306D
:100BDA009A001E141C08F00070084001AA000800C0
:100BEA00F900AF01B0010A30F6007608F000790882
:100BFA0086311326F700F801F735F80D38307707F4
:100C0A0084008830783D8500003FB500013FB6007A
:100C1A000130B3000030B400AC010800F300083022
:100C2A00F1007108F400F5017308F1000730F1369C
:100C3A00890B1C2E75357104F2007208F500031039
:100C4A00F30D70087502031C2C2E7008F502013092
:100C5A00F402031D192E7508080041019D180800A9
:100C6A009C301C020318462E25304601150280309E
:100C7A00031914020318562E403094070030953D8C
:100C8A00562E9D301C02031C562E003046011502BA
:100C9A00413003191402031C562E403094020030CE
:100CAA00953B41019D1408007C0CF200F20C720C79
:100CBA000139F3007B1F632E0130642E0030F400EB
:100CCA00FB1E692E01306A2E0030F5007B1C6F2E48
:100CDA000130702E003075060319752E0130762EFC
:100CEA00003074067306031D7C2E7D147D2E7D1044
:100CFA000130FC36FB0C890B7E2EFC137D18FC1789
:100D0A007C08F1007B08F000080050011E138F30A8
:100D1A009B0080309A001E161E1555309F00AA307F
:100D2A009F009E148F309B0080309A004001290852
:100D3A00F000F101700850019C0071089D001E121C
:100D4A009E161E1555309F00AA309F009E148F30A4
:100D5A009B0081309A0040012A08F000F1017008D6
:100D6A0050019C0071089D001E129E121E155530DE
:100D7A009F00AA309F009E141E110800F000F62E54
:100D8A009A111A129A121A109A101A1108001A12A3
:100D9A009A121A109A101A119A1508009A119A1290
:100DAA001A109A101A111A1608009A111A121A1001
:100DBA009A101A119A1608009A111A129A129A106F
:100DCA001A111A1408009A111A129A121A101A11E0
:100DDA009A1408009A111A129A121A109A101A15CD
:100DEA0008007008003A0319C52E013A0319CC2EDF
:100DFA00033A0319D32E013A0319DA2E073A0319D3
:100E0A00E12E013A0319E82E033A0319EF2E0D2FAA
:100E1A000800732F0130B3020030B43B33083404A6
:100E2A00031D0800863159268731073070054001B5
:100E3A00A00000307105A1003008A200A301A2356C
:100E4A00A30DA235A30DA235A30D0030A40088304E
:100E5A00A50022082407A6002308253DA700260886
:100E6A00200784002708213D85000008A8002808DB
:100E7A00AF00AD01AE013608B4003508B300AC01CD
:100E8A00AC0A08000130B3020030B43B0130A000C4
:100E9A002008AD070E302D06031D622F0130A00079
:100EAA002008AE070E302E06031D612F2F08A00062
:100EBA002008B000AC01622FAD012D082E02031CE0
:100ECA00682F2F08692F3008A000A1012008F6001A
:100EDA002108F70076088631C32608002C08003A54
:100EEA0003190F2F013A0319472F7B2F08000430EB
:100EFA005101930020308E0010307E01B800BB01F2
:100F0A0040019801103092007E01CE01D1014001CA
:100F1A009A019401C73045018D0001309000893053
:100F2A008E004601940195018030960003307E01BF
:100F3A009200833052018C00113041019D00233010
:100F4A009E008531DD25873129088531F5258731D0
:100F5A000130FA007A08A907A5302A06F000A53060
:100F6A00F1008531D82587316530FA007A08AA0759
:100F7A008531D525873186318A268731303040013F
:100F8A00B1007530B200AB018631322687314E018D
:100F9A000D1FC92F0D1340019816E72F0130B1021A
:100FAA000030B23B31083204031DE32F0130A9029D
:100FBA0086318A2687314001AB01AB0A87310E2779
:100FCA008731EF2F2B08003A0319D32F013A03195F
:100FDA00E32FEF2F9812C92FFD01FB01FC014001FD
:100FEA00A901AA01AB01AC01AD01AE01AF01B0018B
:100FFA00400187317C2F0134023403340434053430
:10100A000634013402340234033404340534063419
:10101A00023403340434033404340534063401340A
:10102A0003340434053404340534063401340234F8
:10103A0004340534063405340634013402340334E6
:10104A0005340634013406340134023403340434DA
:10105A0006340134023401340234033404340534CE
:10106A00013402340334D034073434340534E834D8
:10107A000334203403349A3402343A340234F434D4
:0E108A000134903401344D3401341D340134EE
:041F000000000000DD
:020000040001F9
:04000E00ED3F252776
:04001400EF1FFF3F9C
:00000001FF
